{
  "address": "0x5FbDB2315678afecb367f032d93F642f64180aa3",
  "abi": [
    {
      "inputs": [],
      "stateMutability": "nonpayable",
      "type": "constructor"
    },
    {
      "anonymous": false,
      "inputs": [
        {
          "indexed": true,
          "internalType": "address",
          "name": "owner",
          "type": "address"
        },
        {
          "indexed": true,
          "internalType": "address",
          "name": "approved",
          "type": "address"
        },
        {
          "indexed": true,
          "internalType": "uint256",
          "name": "tokenId",
          "type": "uint256"
        }
      ],
      "name": "Approval",
      "type": "event"
    },
    {
      "anonymous": false,
      "inputs": [
        {
          "indexed": true,
          "internalType": "address",
          "name": "owner",
          "type": "address"
        },
        {
          "indexed": true,
          "internalType": "address",
          "name": "operator",
          "type": "address"
        },
        {
          "indexed": false,
          "internalType": "bool",
          "name": "approved",
          "type": "bool"
        }
      ],
      "name": "ApprovalForAll",
      "type": "event"
    },
    {
      "anonymous": false,
      "inputs": [
        {
          "indexed": true,
          "internalType": "uint256",
          "name": "tokenId",
          "type": "uint256"
        },
        {
          "indexed": false,
          "internalType": "address",
          "name": "seller",
          "type": "address"
        },
        {
          "indexed": false,
          "internalType": "address",
          "name": "owner",
          "type": "address"
        },
        {
          "indexed": false,
          "internalType": "uint256",
          "name": "price",
          "type": "uint256"
        },
        {
          "indexed": false,
          "internalType": "bool",
          "name": "sold",
          "type": "bool"
        }
      ],
      "name": "ItemResold",
      "type": "event"
    },
    {
      "anonymous": false,
      "inputs": [
        {
          "indexed": true,
          "internalType": "uint256",
          "name": "tokenId",
          "type": "uint256"
        },
        {
          "indexed": false,
          "internalType": "address",
          "name": "seller",
          "type": "address"
        },
        {
          "indexed": false,
          "internalType": "address",
          "name": "owner",
          "type": "address"
        },
        {
          "indexed": false,
          "internalType": "uint256",
          "name": "price",
          "type": "uint256"
        },
        {
          "indexed": false,
          "internalType": "bool",
          "name": "sold",
          "type": "bool"
        }
      ],
      "name": "ItemSold",
      "type": "event"
    },
    {
      "anonymous": false,
      "inputs": [
        {
          "indexed": true,
          "internalType": "uint256",
          "name": "tokenId",
          "type": "uint256"
        },
        {
          "indexed": false,
          "internalType": "address",
          "name": "seller",
          "type": "address"
        },
        {
          "indexed": false,
          "internalType": "address",
          "name": "owner",
          "type": "address"
        },
        {
          "indexed": false,
          "internalType": "uint256",
          "name": "price",
          "type": "uint256"
        },
        {
          "indexed": false,
          "internalType": "bool",
          "name": "sold",
          "type": "bool"
        }
      ],
      "name": "MarketItemCreated",
      "type": "event"
    },
    {
      "anonymous": false,
      "inputs": [
        {
          "indexed": true,
          "internalType": "address",
          "name": "from",
          "type": "address"
        },
        {
          "indexed": true,
          "internalType": "address",
          "name": "to",
          "type": "address"
        },
        {
          "indexed": true,
          "internalType": "uint256",
          "name": "tokenId",
          "type": "uint256"
        }
      ],
      "name": "Transfer",
      "type": "event"
    },
    {
      "inputs": [],
      "name": "allUnsoldItems",
      "outputs": [
        {
          "components": [
            {
              "internalType": "uint256",
              "name": "tokenId",
              "type": "uint256"
            },
            {
              "internalType": "address payable",
              "name": "seller",
              "type": "address"
            },
            {
              "internalType": "address payable",
              "name": "owner",
              "type": "address"
            },
            {
              "internalType": "uint256",
              "name": "price",
              "type": "uint256"
            },
            {
              "internalType": "bool",
              "name": "sold",
              "type": "bool"
            }
          ],
          "internalType": "struct Marketplace.MarketItem[]",
          "name": "",
          "type": "tuple[]"
        }
      ],
      "stateMutability": "view",
      "type": "function"
    },
    {
      "inputs": [
        {
          "internalType": "address",
          "name": "to",
          "type": "address"
        },
        {
          "internalType": "uint256",
          "name": "tokenId",
          "type": "uint256"
        }
      ],
      "name": "approve",
      "outputs": [],
      "stateMutability": "nonpayable",
      "type": "function"
    },
    {
      "inputs": [
        {
          "internalType": "address",
          "name": "owner",
          "type": "address"
        }
      ],
      "name": "balanceOf",
      "outputs": [
        {
          "internalType": "uint256",
          "name": "",
          "type": "uint256"
        }
      ],
      "stateMutability": "view",
      "type": "function"
    },
    {
      "inputs": [
        {
          "internalType": "uint256",
          "name": "tokenId",
          "type": "uint256"
        }
      ],
      "name": "createSale",
      "outputs": [],
      "stateMutability": "payable",
      "type": "function"
    },
    {
      "inputs": [
        {
          "internalType": "string",
          "name": "tokenURI",
          "type": "string"
        },
        {
          "internalType": "uint256",
          "name": "price",
          "type": "uint256"
        }
      ],
      "name": "createToken",
      "outputs": [
        {
          "internalType": "uint256",
          "name": "",
          "type": "uint256"
        }
      ],
      "stateMutability": "payable",
      "type": "function"
    },
    {
      "inputs": [],
      "name": "fetchMyItems",
      "outputs": [
        {
          "components": [
            {
              "internalType": "uint256",
              "name": "tokenId",
              "type": "uint256"
            },
            {
              "internalType": "address payable",
              "name": "seller",
              "type": "address"
            },
            {
              "internalType": "address payable",
              "name": "owner",
              "type": "address"
            },
            {
              "internalType": "uint256",
              "name": "price",
              "type": "uint256"
            },
            {
              "internalType": "bool",
              "name": "sold",
              "type": "bool"
            }
          ],
          "internalType": "struct Marketplace.MarketItem[]",
          "name": "",
          "type": "tuple[]"
        }
      ],
      "stateMutability": "view",
      "type": "function"
    },
    {
      "inputs": [],
      "name": "fetchMyListedItems",
      "outputs": [
        {
          "components": [
            {
              "internalType": "uint256",
              "name": "tokenId",
              "type": "uint256"
            },
            {
              "internalType": "address payable",
              "name": "seller",
              "type": "address"
            },
            {
              "internalType": "address payable",
              "name": "owner",
              "type": "address"
            },
            {
              "internalType": "uint256",
              "name": "price",
              "type": "uint256"
            },
            {
              "internalType": "bool",
              "name": "sold",
              "type": "bool"
            }
          ],
          "internalType": "struct Marketplace.MarketItem[]",
          "name": "",
          "type": "tuple[]"
        }
      ],
      "stateMutability": "view",
      "type": "function"
    },
    {
      "inputs": [
        {
          "internalType": "uint256",
          "name": "tokenId",
          "type": "uint256"
        }
      ],
      "name": "getApproved",
      "outputs": [
        {
          "internalType": "address",
          "name": "",
          "type": "address"
        }
      ],
      "stateMutability": "view",
      "type": "function"
    },
    {
      "inputs": [
        {
          "internalType": "uint256",
          "name": "tokenId",
          "type": "uint256"
        }
      ],
      "name": "getItemById",
      "outputs": [
        {
          "components": [
            {
              "internalType": "uint256",
              "name": "tokenId",
              "type": "uint256"
            },
            {
              "internalType": "address payable",
              "name": "seller",
              "type": "address"
            },
            {
              "internalType": "address payable",
              "name": "owner",
              "type": "address"
            },
            {
              "internalType": "uint256",
              "name": "price",
              "type": "uint256"
            },
            {
              "internalType": "bool",
              "name": "sold",
              "type": "bool"
            }
          ],
          "internalType": "struct Marketplace.MarketItem",
          "name": "",
          "type": "tuple"
        }
      ],
      "stateMutability": "view",
      "type": "function"
    },
    {
      "inputs": [],
      "name": "getListingPrice",
      "outputs": [
        {
          "internalType": "uint256",
          "name": "",
          "type": "uint256"
        }
      ],
      "stateMutability": "view",
      "type": "function"
    },
    {
      "inputs": [
        {
          "internalType": "address",
          "name": "owner",
          "type": "address"
        },
        {
          "internalType": "address",
          "name": "operator",
          "type": "address"
        }
      ],
      "name": "isApprovedForAll",
      "outputs": [
        {
          "internalType": "bool",
          "name": "",
          "type": "bool"
        }
      ],
      "stateMutability": "view",
      "type": "function"
    },
    {
      "inputs": [],
      "name": "name",
      "outputs": [
        {
          "internalType": "string",
          "name": "",
          "type": "string"
        }
      ],
      "stateMutability": "view",
      "type": "function"
    },
    {
      "inputs": [
        {
          "internalType": "uint256",
          "name": "tokenId",
          "type": "uint256"
        }
      ],
      "name": "ownerOf",
      "outputs": [
        {
          "internalType": "address",
          "name": "",
          "type": "address"
        }
      ],
      "stateMutability": "view",
      "type": "function"
    },
    {
      "inputs": [
        {
          "internalType": "uint256",
          "name": "tokenId",
          "type": "uint256"
        },
        {
          "internalType": "uint256",
          "name": "price",
          "type": "uint256"
        }
      ],
      "name": "resellItem",
      "outputs": [],
      "stateMutability": "payable",
      "type": "function"
    },
    {
      "inputs": [
        {
          "internalType": "address",
          "name": "from",
          "type": "address"
        },
        {
          "internalType": "address",
          "name": "to",
          "type": "address"
        },
        {
          "internalType": "uint256",
          "name": "tokenId",
          "type": "uint256"
        }
      ],
      "name": "safeTransferFrom",
      "outputs": [],
      "stateMutability": "nonpayable",
      "type": "function"
    },
    {
      "inputs": [
        {
          "internalType": "address",
          "name": "from",
          "type": "address"
        },
        {
          "internalType": "address",
          "name": "to",
          "type": "address"
        },
        {
          "internalType": "uint256",
          "name": "tokenId",
          "type": "uint256"
        },
        {
          "internalType": "bytes",
          "name": "data",
          "type": "bytes"
        }
      ],
      "name": "safeTransferFrom",
      "outputs": [],
      "stateMutability": "nonpayable",
      "type": "function"
    },
    {
      "inputs": [
        {
          "internalType": "address",
          "name": "operator",
          "type": "address"
        },
        {
          "internalType": "bool",
          "name": "approved",
          "type": "bool"
        }
      ],
      "name": "setApprovalForAll",
      "outputs": [],
      "stateMutability": "nonpayable",
      "type": "function"
    },
    {
      "inputs": [
        {
          "internalType": "bytes4",
          "name": "interfaceId",
          "type": "bytes4"
        }
      ],
      "name": "supportsInterface",
      "outputs": [
        {
          "internalType": "bool",
          "name": "",
          "type": "bool"
        }
      ],
      "stateMutability": "view",
      "type": "function"
    },
    {
      "inputs": [],
      "name": "symbol",
      "outputs": [
        {
          "internalType": "string",
          "name": "",
          "type": "string"
        }
      ],
      "stateMutability": "view",
      "type": "function"
    },
    {
      "inputs": [
        {
          "internalType": "uint256",
          "name": "tokenId",
          "type": "uint256"
        }
      ],
      "name": "tokenURI",
      "outputs": [
        {
          "internalType": "string",
          "name": "",
          "type": "string"
        }
      ],
      "stateMutability": "view",
      "type": "function"
    },
    {
      "inputs": [
        {
          "internalType": "address",
          "name": "from",
          "type": "address"
        },
        {
          "internalType": "address",
          "name": "to",
          "type": "address"
        },
        {
          "internalType": "uint256",
          "name": "tokenId",
          "type": "uint256"
        }
      ],
      "name": "transferFrom",
      "outputs": [],
      "stateMutability": "nonpayable",
      "type": "function"
    },
    {
      "inputs": [
        {
          "internalType": "uint256",
          "name": "_listingPrice",
          "type": "uint256"
        }
      ],
      "name": "updateListingPrice",
      "outputs": [],
      "stateMutability": "payable",
      "type": "function"
    }
  ],
  "transactionHash": "0xfaa5b66c7c531c1dfd7cc2685b717ac284234285659b227c929f3b0a6dd75b2b",
  "args": [],
  "numDeployments": 1,
  "solcInputHash": "867d4e33d23b21bf66e0418e56261ae4",
  "bytecode": "0x608060405266b1a2bc2ec50000600a553480156200001c57600080fd5b506040518060400160405280600b81526020017f41686d616420546f6b656e0000000000000000000000000000000000000000008152506040518060400160405280600381526020017f414d5400000000000000000000000000000000000000000000000000000000008152508160009080519060200190620000a192919062000104565b508060019080519060200190620000ba92919062000104565b50505033600960006101000a81548173ffffffffffffffffffffffffffffffffffffffff021916908373ffffffffffffffffffffffffffffffffffffffff16021790555062000219565b8280546200011290620001b4565b90600052602060002090601f01602090048101928262000136576000855562000182565b82601f106200015157805160ff191683800117855562000182565b8280016001018555821562000182579182015b828111156200018157825182559160200191906001019062000164565b5b50905062000191919062000195565b5090565b5b80821115620001b057600081600090555060010162000196565b5090565b60006002820490506001821680620001cd57607f821691505b60208210811415620001e457620001e3620001ea565b5b50919050565b7f4e487b7100000000000000000000000000000000000000000000000000000000600052602260045260246000fd5b61456780620002296000396000f3fe6080604052600436106101355760003560e01c806372b3b620116100ab578063b88d4fde1161006f578063b88d4fde14610411578063c87b56dd1461043a578063cd2f071014610477578063e985e9c5146104b4578063f9eccb3b146104f1578063ff118be31461050d57610135565b806372b3b6201461035557806395d89b41146103855780639da1b02a146103b0578063a22cb465146103cc578063ae677aa3146103f557610135565b806315c9ae10116100fd57806315c9ae101461023357806323b872dd1461025e5780633c05acd41461028757806342842e0e146102b25780636352211e146102db57806370a082311461031857610135565b806301ffc9a71461013a57806306fdde0314610177578063081812fc146101a2578063095ea7b3146101df57806312e8558514610208575b600080fd5b34801561014657600080fd5b50610161600480360381019061015c91906132dd565b610538565b60405161016e91906139b6565b60405180910390f35b34801561018357600080fd5b5061018c61061a565b60405161019991906139d1565b60405180910390f35b3480156101ae57600080fd5b506101c960048036038101906101c49190613383565b6106ac565b6040516101d691906138e8565b60405180910390f35b3480156101eb57600080fd5b50610206600480360381019061020191906132a1565b6106f2565b005b34801561021457600080fd5b5061021d61080a565b60405161022a9190613c6e565b60405180910390f35b34801561023f57600080fd5b50610248610814565b6040516102559190613994565b60405180910390f35b34801561026a57600080fd5b506102856004803603810190610280919061319b565b610b4e565b005b34801561029357600080fd5b5061029c610bae565b6040516102a99190613994565b60405180910390f35b3480156102be57600080fd5b506102d960048036038101906102d4919061319b565b610ee8565b005b3480156102e757600080fd5b5061030260048036038101906102fd9190613383565b610f08565b60405161030f91906138e8565b60405180910390f35b34801561032457600080fd5b5061033f600480360381019061033a9190613136565b610f8f565b60405161034c9190613c6e565b60405180910390f35b61036f600480360381019061036a919061332f565b611047565b60405161037c9190613c6e565b60405180910390f35b34801561039157600080fd5b5061039a611089565b6040516103a791906139d1565b60405180910390f35b6103ca60048036038101906103c59190613383565b61111b565b005b3480156103d857600080fd5b506103f360048036038101906103ee9190613265565b61132e565b005b61040f600480360381019061040a9190613383565b611344565b005b34801561041d57600080fd5b50610438600480360381019061043391906131ea565b6113a8565b005b34801561044657600080fd5b50610461600480360381019061045c9190613383565b61140a565b60405161046e91906139d1565b60405180910390f35b34801561048357600080fd5b5061049e60048036038101906104999190613383565b61151d565b6040516104ab9190613c53565b60405180910390f35b3480156104c057600080fd5b506104db60048036038101906104d6919061315f565b611625565b6040516104e891906139b6565b60405180910390f35b61050b600480360381019061050691906133ac565b6116b9565b005b34801561051957600080fd5b50610522611930565b60405161052f9190613994565b60405180910390f35b60007f80ac58cd000000000000000000000000000000000000000000000000000000007bffffffffffffffffffffffffffffffffffffffffffffffffffffffff1916827bffffffffffffffffffffffffffffffffffffffffffffffffffffffff1916148061060357507f5b5e139f000000000000000000000000000000000000000000000000000000007bffffffffffffffffffffffffffffffffffffffffffffffffffffffff1916827bffffffffffffffffffffffffffffffffffffffffffffffffffffffff1916145b80610613575061061282611bdc565b5b9050919050565b60606000805461062990613ede565b80601f016020809104026020016040519081016040528092919081815260200182805461065590613ede565b80156106a25780601f10610677576101008083540402835291602001916106a2565b820191906000526020600020905b81548152906001019060200180831161068557829003601f168201915b5050505050905090565b60006106b782611c46565b6004600083815260200190815260200160002060009054906101000a900473ffffffffffffffffffffffffffffffffffffffff169050919050565b60006106fd82610f08565b90508073ffffffffffffffffffffffffffffffffffffffff168373ffffffffffffffffffffffffffffffffffffffff16141561076e576040517f08c379a000000000000000000000000000000000000000000000000000000000815260040161076590613bb3565b60405180910390fd5b8073ffffffffffffffffffffffffffffffffffffffff1661078d611c91565b73ffffffffffffffffffffffffffffffffffffffff1614806107bc57506107bb816107b6611c91565b611625565b5b6107fb576040517f08c379a00000000000000000000000000000000000000000000000000000000081526004016107f290613bd3565b60405180910390fd5b6108058383611c99565b505050565b6000600a54905090565b606060006108226007611d52565b905060008060005b838110156108cb573373ffffffffffffffffffffffffffffffffffffffff16600b600060018461085a9190613d8c565b815260200190815260200160002060020160009054906101000a900473ffffffffffffffffffffffffffffffffffffffff1673ffffffffffffffffffffffffffffffffffffffff1614156108b8576001836108b59190613d8c565b92505b80806108c390613f41565b91505061082a565b5060008267ffffffffffffffff81111561090e577f4e487b7100000000000000000000000000000000000000000000000000000000600052604160045260246000fd5b60405190808252806020026020018201604052801561094757816020015b610934612efd565b81526020019060019003908161092c5790505b50905060005b84811015610b43573373ffffffffffffffffffffffffffffffffffffffff16600b600060018461097d9190613d8c565b815260200190815260200160002060020160009054906101000a900473ffffffffffffffffffffffffffffffffffffffff1673ffffffffffffffffffffffffffffffffffffffff161415610b305760006001826109da9190613d8c565b90506000600b60008381526020019081526020016000209050806040518060a0016040529081600082015481526020016001820160009054906101000a900473ffffffffffffffffffffffffffffffffffffffff1673ffffffffffffffffffffffffffffffffffffffff1673ffffffffffffffffffffffffffffffffffffffff1681526020016002820160009054906101000a900473ffffffffffffffffffffffffffffffffffffffff1673ffffffffffffffffffffffffffffffffffffffff1673ffffffffffffffffffffffffffffffffffffffff168152602001600382015481526020016004820160009054906101000a900460ff161515151581525050848681518110610b13577f4e487b7100000000000000000000000000000000000000000000000000000000600052603260045260246000fd5b6020026020010181905250600185610b2b9190613d8c565b945050505b8080610b3b90613f41565b91505061094d565b508094505050505090565b610b5f610b59611c91565b82611d60565b610b9e576040517f08c379a0000000000000000000000000000000000000000000000000000000008152600401610b95906139f3565b60405180910390fd5b610ba9838383611df5565b505050565b60606000610bbc6007611d52565b905060008060005b83811015610c65573373ffffffffffffffffffffffffffffffffffffffff16600b6000600184610bf49190613d8c565b815260200190815260200160002060010160009054906101000a900473ffffffffffffffffffffffffffffffffffffffff1673ffffffffffffffffffffffffffffffffffffffff161415610c5257600183610c4f9190613d8c565b92505b8080610c5d90613f41565b915050610bc4565b5060008267ffffffffffffffff811115610ca8577f4e487b7100000000000000000000000000000000000000000000000000000000600052604160045260246000fd5b604051908082528060200260200182016040528015610ce157816020015b610cce612efd565b815260200190600190039081610cc65790505b50905060005b84811015610edd573373ffffffffffffffffffffffffffffffffffffffff16600b6000600184610d179190613d8c565b815260200190815260200160002060010160009054906101000a900473ffffffffffffffffffffffffffffffffffffffff1673ffffffffffffffffffffffffffffffffffffffff161415610eca576000600182610d749190613d8c565b90506000600b60008381526020019081526020016000209050806040518060a0016040529081600082015481526020016001820160009054906101000a900473ffffffffffffffffffffffffffffffffffffffff1673ffffffffffffffffffffffffffffffffffffffff1673ffffffffffffffffffffffffffffffffffffffff1681526020016002820160009054906101000a900473ffffffffffffffffffffffffffffffffffffffff1673ffffffffffffffffffffffffffffffffffffffff1673ffffffffffffffffffffffffffffffffffffffff168152602001600382015481526020016004820160009054906101000a900460ff161515151581525050848681518110610ead577f4e487b7100000000000000000000000000000000000000000000000000000000600052603260045260246000fd5b6020026020010181905250600185610ec59190613d8c565b945050505b8080610ed590613f41565b915050610ce7565b508094505050505090565b610f03838383604051806020016040528060008152506113a8565b505050565b600080610f14836120ef565b9050600073ffffffffffffffffffffffffffffffffffffffff168173ffffffffffffffffffffffffffffffffffffffff161415610f86576040517f08c379a0000000000000000000000000000000000000000000000000000000008152600401610f7d90613b93565b60405180910390fd5b80915050919050565b60008073ffffffffffffffffffffffffffffffffffffffff168273ffffffffffffffffffffffffffffffffffffffff161415611000576040517f08c379a0000000000000000000000000000000000000000000000000000000008152600401610ff790613af3565b60405180910390fd5b600360008373ffffffffffffffffffffffffffffffffffffffff1673ffffffffffffffffffffffffffffffffffffffff168152602001908152602001600020549050919050565b6000611053600761212c565b600061105f6007611d52565b905061106b3382612142565b6110758185612360565b61107f81846123d4565b8091505092915050565b60606001805461109890613ede565b80601f01602080910402602001604051908101604052809291908181526020018280546110c490613ede565b80156111115780601f106110e657610100808354040283529160200191611111565b820191906000526020600020905b8154815290600101906020018083116110f457829003601f168201915b5050505050905090565b6000600b60008381526020019081526020016000206003015490506000600b600084815260200190815260200160002060010160009054906101000a900473ffffffffffffffffffffffffffffffffffffffff1690508134146111b3576040517f08c379a00000000000000000000000000000000000000000000000000000000081526004016111aa90613b33565b60405180910390fd5b6001600b600085815260200190815260200160002060040160006101000a81548160ff0219169083151502179055506000600b600085815260200190815260200160002060010160006101000a81548173ffffffffffffffffffffffffffffffffffffffff021916908373ffffffffffffffffffffffffffffffffffffffff16021790555033600b600085815260200190815260200160002060020160006101000a81548173ffffffffffffffffffffffffffffffffffffffff021916908373ffffffffffffffffffffffffffffffffffffffff160217905550611298303385611df5565b6112a2600861212c565b8073ffffffffffffffffffffffffffffffffffffffff166108fc349081150290604051600060405180830381858888f193505050501580156112e8573d6000803e3d6000fd5b50827fa783d35d8aafc0cd648da53dbc66986964796ed20208dbfb3cfb0050c63347476000338560016040516113219493929190613903565b60405180910390a2505050565b611340611339611c91565b83836125d7565b5050565b600960009054906101000a900473ffffffffffffffffffffffffffffffffffffffff1673ffffffffffffffffffffffffffffffffffffffff163373ffffffffffffffffffffffffffffffffffffffff161461139e57600080fd5b80600a8190555050565b6113b96113b3611c91565b83611d60565b6113f8576040517f08c379a00000000000000000000000000000000000000000000000000000000081526004016113ef906139f3565b60405180910390fd5b61140484848484612744565b50505050565b606061141582611c46565b600060066000848152602001908152602001600020805461143590613ede565b80601f016020809104026020016040519081016040528092919081815260200182805461146190613ede565b80156114ae5780601f10611483576101008083540402835291602001916114ae565b820191906000526020600020905b81548152906001019060200180831161149157829003601f168201915b5050505050905060006114bf6127a0565b90506000815114156114d5578192505050611518565b60008251111561150a5780826040516020016114f29291906138c4565b60405160208183030381529060405292505050611518565b611513846127b7565b925050505b919050565b611525612efd565b600b60008381526020019081526020016000206040518060a0016040529081600082015481526020016001820160009054906101000a900473ffffffffffffffffffffffffffffffffffffffff1673ffffffffffffffffffffffffffffffffffffffff1673ffffffffffffffffffffffffffffffffffffffff1681526020016002820160009054906101000a900473ffffffffffffffffffffffffffffffffffffffff1673ffffffffffffffffffffffffffffffffffffffff1673ffffffffffffffffffffffffffffffffffffffff168152602001600382015481526020016004820160009054906101000a900460ff1615151515815250509050919050565b6000600560008473ffffffffffffffffffffffffffffffffffffffff1673ffffffffffffffffffffffffffffffffffffffff16815260200190815260200160002060008373ffffffffffffffffffffffffffffffffffffffff1673ffffffffffffffffffffffffffffffffffffffff16815260200190815260200160002060009054906101000a900460ff16905092915050565b600a5434146116fd576040517f08c379a00000000000000000000000000000000000000000000000000000000081526004016116f490613c33565b60405180910390fd5b60008111611740576040517f08c379a000000000000000000000000000000000000000000000000000000000815260040161173790613bf3565b60405180910390fd5b600b600083815260200190815260200160002060020160009054906101000a900473ffffffffffffffffffffffffffffffffffffffff1673ffffffffffffffffffffffffffffffffffffffff163373ffffffffffffffffffffffffffffffffffffffff16146117e4576040517f08c379a00000000000000000000000000000000000000000000000000000000081526004016117db90613a93565b60405180910390fd5b30600b600084815260200190815260200160002060010160006101000a81548173ffffffffffffffffffffffffffffffffffffffff021916908373ffffffffffffffffffffffffffffffffffffffff16021790555033600b600084815260200190815260200160002060020160006101000a81548173ffffffffffffffffffffffffffffffffffffffff021916908373ffffffffffffffffffffffffffffffffffffffff1602179055506000600b600084815260200190815260200160002060040160006101000a81548160ff02191690831515021790555080600b6000848152602001908152602001600020600301819055506118e3333084611df5565b6118ed600861281f565b817fe49dbc04419182f886a9d9ceaee9a4bb69f71580a1d3cd548336f84fdaaf922033308460006040516119249493929190613903565b60405180910390a25050565b6060600061193e6007611d52565b9050600061194c6008611d52565b826119579190613de2565b90506000808267ffffffffffffffff81111561199c577f4e487b7100000000000000000000000000000000000000000000000000000000600052604160045260246000fd5b6040519080825280602002602001820160405280156119d557816020015b6119c2612efd565b8152602001906001900390816119ba5790505b50905060005b84811015611bd1573073ffffffffffffffffffffffffffffffffffffffff16600b6000600184611a0b9190613d8c565b815260200190815260200160002060020160009054906101000a900473ffffffffffffffffffffffffffffffffffffffff1673ffffffffffffffffffffffffffffffffffffffff161415611bbe576000600182611a689190613d8c565b90506000600b60008381526020019081526020016000209050806040518060a0016040529081600082015481526020016001820160009054906101000a900473ffffffffffffffffffffffffffffffffffffffff1673ffffffffffffffffffffffffffffffffffffffff1673ffffffffffffffffffffffffffffffffffffffff1681526020016002820160009054906101000a900473ffffffffffffffffffffffffffffffffffffffff1673ffffffffffffffffffffffffffffffffffffffff1673ffffffffffffffffffffffffffffffffffffffff168152602001600382015481526020016004820160009054906101000a900460ff161515151581525050848681518110611ba1577f4e487b7100000000000000000000000000000000000000000000000000000000600052603260045260246000fd5b6020026020010181905250600185611bb99190613d8c565b945050505b8080611bc990613f41565b9150506119db565b508094505050505090565b60007f01ffc9a7000000000000000000000000000000000000000000000000000000007bffffffffffffffffffffffffffffffffffffffffffffffffffffffff1916827bffffffffffffffffffffffffffffffffffffffffffffffffffffffff1916149050919050565b611c4f8161287b565b611c8e576040517f08c379a0000000000000000000000000000000000000000000000000000000008152600401611c8590613b93565b60405180910390fd5b50565b600033905090565b816004600083815260200190815260200160002060006101000a81548173ffffffffffffffffffffffffffffffffffffffff021916908373ffffffffffffffffffffffffffffffffffffffff160217905550808273ffffffffffffffffffffffffffffffffffffffff16611d0c83610f08565b73ffffffffffffffffffffffffffffffffffffffff167f8c5be1e5ebec7d5bd14f71427d1e84f3dd0314c0f7b2291e5b200ac8c7c3b92560405160405180910390a45050565b600081600001549050919050565b600080611d6c83610f08565b90508073ffffffffffffffffffffffffffffffffffffffff168473ffffffffffffffffffffffffffffffffffffffff161480611dae5750611dad8185611625565b5b80611dec57508373ffffffffffffffffffffffffffffffffffffffff16611dd4846106ac565b73ffffffffffffffffffffffffffffffffffffffff16145b91505092915050565b8273ffffffffffffffffffffffffffffffffffffffff16611e1582610f08565b73ffffffffffffffffffffffffffffffffffffffff1614611e6b576040517f08c379a0000000000000000000000000000000000000000000000000000000008152600401611e6290613a53565b60405180910390fd5b600073ffffffffffffffffffffffffffffffffffffffff168273ffffffffffffffffffffffffffffffffffffffff161415611edb576040517f08c379a0000000000000000000000000000000000000000000000000000000008152600401611ed290613ab3565b60405180910390fd5b611ee883838360016128bc565b8273ffffffffffffffffffffffffffffffffffffffff16611f0882610f08565b73ffffffffffffffffffffffffffffffffffffffff1614611f5e576040517f08c379a0000000000000000000000000000000000000000000000000000000008152600401611f5590613a53565b60405180910390fd5b6004600082815260200190815260200160002060006101000a81549073ffffffffffffffffffffffffffffffffffffffff02191690556001600360008573ffffffffffffffffffffffffffffffffffffffff1673ffffffffffffffffffffffffffffffffffffffff168152602001908152602001600020600082825403925050819055506001600360008473ffffffffffffffffffffffffffffffffffffffff1673ffffffffffffffffffffffffffffffffffffffff16815260200190815260200160002060008282540192505081905550816002600083815260200190815260200160002060006101000a81548173ffffffffffffffffffffffffffffffffffffffff021916908373ffffffffffffffffffffffffffffffffffffffff160217905550808273ffffffffffffffffffffffffffffffffffffffff168473ffffffffffffffffffffffffffffffffffffffff167fddf252ad1be2c89b69c2b068fc378daa952ba7f163c4a11628f55a4df523b3ef60405160405180910390a46120ea83838360016129e2565b505050565b60006002600083815260200190815260200160002060009054906101000a900473ffffffffffffffffffffffffffffffffffffffff169050919050565b6001816000016000828254019250508190555050565b600073ffffffffffffffffffffffffffffffffffffffff168273ffffffffffffffffffffffffffffffffffffffff1614156121b2576040517f08c379a00000000000000000000000000000000000000000000000000000000081526004016121a990613b53565b60405180910390fd5b6121bb8161287b565b156121fb576040517f08c379a00000000000000000000000000000000000000000000000000000000081526004016121f290613a73565b60405180910390fd5b6122096000838360016128bc565b6122128161287b565b15612252576040517f08c379a000000000000000000000000000000000000000000000000000000000815260040161224990613a73565b60405180910390fd5b6001600360008473ffffffffffffffffffffffffffffffffffffffff1673ffffffffffffffffffffffffffffffffffffffff16815260200190815260200160002060008282540192505081905550816002600083815260200190815260200160002060006101000a81548173ffffffffffffffffffffffffffffffffffffffff021916908373ffffffffffffffffffffffffffffffffffffffff160217905550808273ffffffffffffffffffffffffffffffffffffffff16600073ffffffffffffffffffffffffffffffffffffffff167fddf252ad1be2c89b69c2b068fc378daa952ba7f163c4a11628f55a4df523b3ef60405160405180910390a461235c6000838360016129e2565b5050565b6123698261287b565b6123a8576040517f08c379a000000000000000000000000000000000000000000000000000000000815260040161239f90613b13565b60405180910390fd5b806006600084815260200190815260200160002090805190602001906123cf929190612f5a565b505050565b600a543414612418576040517f08c379a000000000000000000000000000000000000000000000000000000000815260040161240f90613b73565b60405180910390fd5b6000811161245b576040517f08c379a000000000000000000000000000000000000000000000000000000000815260040161245290613c13565b60405180910390fd5b6040518060a001604052808381526020013373ffffffffffffffffffffffffffffffffffffffff1681526020013073ffffffffffffffffffffffffffffffffffffffff16815260200182815260200160001515815250600b60008481526020019081526020016000206000820151816000015560208201518160010160006101000a81548173ffffffffffffffffffffffffffffffffffffffff021916908373ffffffffffffffffffffffffffffffffffffffff16021790555060408201518160020160006101000a81548173ffffffffffffffffffffffffffffffffffffffff021916908373ffffffffffffffffffffffffffffffffffffffff1602179055506060820151816003015560808201518160040160006101000a81548160ff021916908315150217905550905050612594333084611df5565b817fb640004f1d14576d0c209e240cad0410e0d8c0c33a09375861fbadae2588a98d33308460006040516125cb9493929190613903565b60405180910390a25050565b8173ffffffffffffffffffffffffffffffffffffffff168373ffffffffffffffffffffffffffffffffffffffff161415612646576040517f08c379a000000000000000000000000000000000000000000000000000000000815260040161263d90613ad3565b60405180910390fd5b80600560008573ffffffffffffffffffffffffffffffffffffffff1673ffffffffffffffffffffffffffffffffffffffff16815260200190815260200160002060008473ffffffffffffffffffffffffffffffffffffffff1673ffffffffffffffffffffffffffffffffffffffff16815260200190815260200160002060006101000a81548160ff0219169083151502179055508173ffffffffffffffffffffffffffffffffffffffff168373ffffffffffffffffffffffffffffffffffffffff167f17307eab39ab6107e8899845ad3d59bd9653f200f220920489ca2b5937696c318360405161273791906139b6565b60405180910390a3505050565b61274f848484611df5565b61275b848484846129e8565b61279a576040517f08c379a000000000000000000000000000000000000000000000000000000000815260040161279190613a33565b60405180910390fd5b50505050565b606060405180602001604052806000815250905090565b60606127c282611c46565b60006127cc6127a0565b905060008151116127ec5760405180602001604052806000815250612817565b806127f684612b7f565b6040516020016128079291906138c4565b6040516020818303038152906040525b915050919050565b6000816000015490506000811161286b576040517f08c379a000000000000000000000000000000000000000000000000000000000815260040161286290613a13565b60405180910390fd5b6001810382600001819055505050565b60008073ffffffffffffffffffffffffffffffffffffffff1661289d836120ef565b73ffffffffffffffffffffffffffffffffffffffff1614159050919050565b60018111156129dc57600073ffffffffffffffffffffffffffffffffffffffff168473ffffffffffffffffffffffffffffffffffffffff16146129505780600360008673ffffffffffffffffffffffffffffffffffffffff1673ffffffffffffffffffffffffffffffffffffffff16815260200190815260200160002060008282546129489190613de2565b925050819055505b600073ffffffffffffffffffffffffffffffffffffffff168373ffffffffffffffffffffffffffffffffffffffff16146129db5780600360008573ffffffffffffffffffffffffffffffffffffffff1673ffffffffffffffffffffffffffffffffffffffff16815260200190815260200160002060008282546129d39190613d8c565b925050819055505b5b50505050565b50505050565b6000612a098473ffffffffffffffffffffffffffffffffffffffff16612ca3565b15612b72578373ffffffffffffffffffffffffffffffffffffffff1663150b7a02612a32611c91565b8786866040518563ffffffff1660e01b8152600401612a549493929190613948565b602060405180830381600087803b158015612a6e57600080fd5b505af1925050508015612a9f57506040513d601f19601f82011682018060405250810190612a9c9190613306565b60015b612b22573d8060008114612acf576040519150601f19603f3d011682016040523d82523d6000602084013e612ad4565b606091505b50600081511415612b1a576040517f08c379a0000000000000000000000000000000000000000000000000000000008152600401612b1190613a33565b60405180910390fd5b805181602001fd5b63150b7a0260e01b7bffffffffffffffffffffffffffffffffffffffffffffffffffffffff1916817bffffffffffffffffffffffffffffffffffffffffffffffffffffffff191614915050612b77565b600190505b949350505050565b606060006001612b8e84612cc6565b01905060008167ffffffffffffffff811115612bd3577f4e487b7100000000000000000000000000000000000000000000000000000000600052604160045260246000fd5b6040519080825280601f01601f191660200182016040528015612c055781602001600182028036833780820191505090505b509050600082602001820190505b600115612c98578080600190039150507f3031323334353637383961626364656600000000000000000000000000000000600a86061a8153600a8581612c82577f4e487b7100000000000000000000000000000000000000000000000000000000600052601260045260246000fd5b0494506000851415612c9357612c98565b612c13565b819350505050919050565b6000808273ffffffffffffffffffffffffffffffffffffffff163b119050919050565b600080600090507a184f03e93ff9f4daa797ed6e38ed64bf6a1f0100000000000000008310612d4a577a184f03e93ff9f4daa797ed6e38ed64bf6a1f0100000000000000008381612d40577f4e487b7100000000000000000000000000000000000000000000000000000000600052601260045260246000fd5b0492506040810190505b6d04ee2d6d415b85acef81000000008310612dad576d04ee2d6d415b85acef81000000008381612da3577f4e487b7100000000000000000000000000000000000000000000000000000000600052601260045260246000fd5b0492506020810190505b662386f26fc100008310612e0257662386f26fc100008381612df8577f4e487b7100000000000000000000000000000000000000000000000000000000600052601260045260246000fd5b0492506010810190505b6305f5e1008310612e51576305f5e1008381612e47577f4e487b7100000000000000000000000000000000000000000000000000000000600052601260045260246000fd5b0492506008810190505b6127108310612e9c576127108381612e92577f4e487b7100000000000000000000000000000000000000000000000000000000600052601260045260246000fd5b0492506004810190505b60648310612ee55760648381612edb577f4e487b7100000000000000000000000000000000000000000000000000000000600052601260045260246000fd5b0492506002810190505b600a8310612ef4576001810190505b80915050919050565b6040518060a0016040528060008152602001600073ffffffffffffffffffffffffffffffffffffffff168152602001600073ffffffffffffffffffffffffffffffffffffffff168152602001600081526020016000151581525090565b828054612f6690613ede565b90600052602060002090601f016020900481019282612f885760008555612fcf565b82601f10612fa157805160ff1916838001178555612fcf565b82800160010185558215612fcf579182015b82811115612fce578251825591602001919060010190612fb3565b5b509050612fdc9190612fe0565b5090565b5b80821115612ff9576000816000905550600101612fe1565b5090565b600061301061300b84613cae565b613c89565b90508281526020810184848401111561302857600080fd5b613033848285613e9c565b509392505050565b600061304e61304984613cdf565b613c89565b90508281526020810184848401111561306657600080fd5b613071848285613e9c565b509392505050565b600081359050613088816144d5565b92915050565b60008135905061309d816144ec565b92915050565b6000813590506130b281614503565b92915050565b6000815190506130c781614503565b92915050565b600082601f8301126130de57600080fd5b81356130ee848260208601612ffd565b91505092915050565b600082601f83011261310857600080fd5b813561311884826020860161303b565b91505092915050565b6000813590506131308161451a565b92915050565b60006020828403121561314857600080fd5b600061315684828501613079565b91505092915050565b6000806040838503121561317257600080fd5b600061318085828601613079565b925050602061319185828601613079565b9150509250929050565b6000806000606084860312156131b057600080fd5b60006131be86828701613079565b93505060206131cf86828701613079565b92505060406131e086828701613121565b9150509250925092565b6000806000806080858703121561320057600080fd5b600061320e87828801613079565b945050602061321f87828801613079565b935050604061323087828801613121565b925050606085013567ffffffffffffffff81111561324d57600080fd5b613259878288016130cd565b91505092959194509250565b6000806040838503121561327857600080fd5b600061328685828601613079565b92505060206132978582860161308e565b9150509250929050565b600080604083850312156132b457600080fd5b60006132c285828601613079565b92505060206132d385828601613121565b9150509250929050565b6000602082840312156132ef57600080fd5b60006132fd848285016130a3565b91505092915050565b60006020828403121561331857600080fd5b6000613326848285016130b8565b91505092915050565b6000806040838503121561334257600080fd5b600083013567ffffffffffffffff81111561335c57600080fd5b613368858286016130f7565b925050602061337985828601613121565b9150509250929050565b60006020828403121561339557600080fd5b60006133a384828501613121565b91505092915050565b600080604083850312156133bf57600080fd5b60006133cd85828601613121565b92505060206133de85828601613121565b9150509250929050565b60006133f483836137d6565b60a08301905092915050565b61340981613e28565b82525050565b61341881613e16565b82525050565b600061342982613d20565b6134338185613d4e565b935061343e83613d10565b8060005b8381101561346f57815161345688826133e8565b975061346183613d41565b925050600181019050613442565b5085935050505092915050565b61348581613e3a565b82525050565b61349481613e3a565b82525050565b60006134a582613d2b565b6134af8185613d5f565b93506134bf818560208601613eab565b6134c881614017565b840191505092915050565b60006134de82613d36565b6134e88185613d70565b93506134f8818560208601613eab565b61350181614017565b840191505092915050565b600061351782613d36565b6135218185613d81565b9350613531818560208601613eab565b80840191505092915050565b600061354a602d83613d70565b915061355582614028565b604082019050919050565b600061356d601b83613d70565b915061357882614077565b602082019050919050565b6000613590603283613d70565b915061359b826140a0565b604082019050919050565b60006135b3602583613d70565b91506135be826140ef565b604082019050919050565b60006135d6601c83613d70565b91506135e18261413e565b602082019050919050565b60006135f9602783613d70565b915061360482614167565b604082019050919050565b600061361c602483613d70565b9150613627826141b6565b604082019050919050565b600061363f601983613d70565b915061364a82614205565b602082019050919050565b6000613662602983613d70565b915061366d8261422e565b604082019050919050565b6000613685602e83613d70565b91506136908261427d565b604082019050919050565b60006136a8602783613d70565b91506136b3826142cc565b604082019050919050565b60006136cb602083613d70565b91506136d68261431b565b602082019050919050565b60006136ee601283613d70565b91506136f982614344565b602082019050919050565b6000613711601883613d70565b915061371c8261436d565b602082019050919050565b6000613734602183613d70565b915061373f82614396565b604082019050919050565b6000613757603d83613d70565b9150613762826143e5565b604082019050919050565b600061377a601e83613d70565b915061378582614434565b602082019050919050565b600061379d601c83613d70565b91506137a88261445d565b602082019050919050565b60006137c0602783613d70565b91506137cb82614486565b604082019050919050565b60a0820160008201516137ec60008501826138a6565b5060208201516137ff6020850182613400565b5060408201516138126040850182613400565b50606082015161382560608501826138a6565b506080820151613838608085018261347c565b50505050565b60a08201600082015161385460008501826138a6565b5060208201516138676020850182613400565b50604082015161387a6040850182613400565b50606082015161388d60608501826138a6565b5060808201516138a0608085018261347c565b50505050565b6138af81613e92565b82525050565b6138be81613e92565b82525050565b60006138d0828561350c565b91506138dc828461350c565b91508190509392505050565b60006020820190506138fd600083018461340f565b92915050565b6000608082019050613918600083018761340f565b613925602083018661340f565b61393260408301856138b5565b61393f606083018461348b565b95945050505050565b600060808201905061395d600083018761340f565b61396a602083018661340f565b61397760408301856138b5565b8181036060830152613989818461349a565b905095945050505050565b600060208201905081810360008301526139ae818461341e565b905092915050565b60006020820190506139cb600083018461348b565b92915050565b600060208201905081810360008301526139eb81846134d3565b905092915050565b60006020820190508181036000830152613a0c8161353d565b9050919050565b60006020820190508181036000830152613a2c81613560565b9050919050565b60006020820190508181036000830152613a4c81613583565b9050919050565b60006020820190508181036000830152613a6c816135a6565b9050919050565b60006020820190508181036000830152613a8c816135c9565b9050919050565b60006020820190508181036000830152613aac816135ec565b9050919050565b60006020820190508181036000830152613acc8161360f565b9050919050565b60006020820190508181036000830152613aec81613632565b9050919050565b60006020820190508181036000830152613b0c81613655565b9050919050565b60006020820190508181036000830152613b2c81613678565b9050919050565b60006020820190508181036000830152613b4c8161369b565b9050919050565b60006020820190508181036000830152613b6c816136be565b9050919050565b60006020820190508181036000830152613b8c816136e1565b9050919050565b60006020820190508181036000830152613bac81613704565b9050919050565b60006020820190508181036000830152613bcc81613727565b9050919050565b60006020820190508181036000830152613bec8161374a565b9050919050565b60006020820190508181036000830152613c0c8161376d565b9050919050565b60006020820190508181036000830152613c2c81613790565b9050919050565b60006020820190508181036000830152613c4c816137b3565b9050919050565b600060a082019050613c68600083018461383e565b92915050565b6000602082019050613c8360008301846138b5565b92915050565b6000613c93613ca4565b9050613c9f8282613f10565b919050565b6000604051905090565b600067ffffffffffffffff821115613cc957613cc8613fe8565b5b613cd282614017565b9050602081019050919050565b600067ffffffffffffffff821115613cfa57613cf9613fe8565b5b613d0382614017565b9050602081019050919050565b6000819050602082019050919050565b600081519050919050565b600081519050919050565b600081519050919050565b6000602082019050919050565b600082825260208201905092915050565b600082825260208201905092915050565b600082825260208201905092915050565b600081905092915050565b6000613d9782613e92565b9150613da283613e92565b9250827fffffffffffffffffffffffffffffffffffffffffffffffffffffffffffffffff03821115613dd757613dd6613f8a565b5b828201905092915050565b6000613ded82613e92565b9150613df883613e92565b925082821015613e0b57613e0a613f8a565b5b828203905092915050565b6000613e2182613e72565b9050919050565b6000613e3382613e72565b9050919050565b60008115159050919050565b60007fffffffff0000000000000000000000000000000000000000000000000000000082169050919050565b600073ffffffffffffffffffffffffffffffffffffffff82169050919050565b6000819050919050565b82818337600083830152505050565b60005b83811015613ec9578082015181840152602081019050613eae565b83811115613ed8576000848401525b50505050565b60006002820490506001821680613ef657607f821691505b60208210811415613f0a57613f09613fb9565b5b50919050565b613f1982614017565b810181811067ffffffffffffffff82111715613f3857613f37613fe8565b5b80604052505050565b6000613f4c82613e92565b91507fffffffffffffffffffffffffffffffffffffffffffffffffffffffffffffffff821415613f7f57613f7e613f8a565b5b600182019050919050565b7f4e487b7100000000000000000000000000000000000000000000000000000000600052601160045260246000fd5b7f4e487b7100000000000000000000000000000000000000000000000000000000600052602260045260246000fd5b7f4e487b7100000000000000000000000000000000000000000000000000000000600052604160045260246000fd5b6000601f19601f8301169050919050565b7f4552433732313a2063616c6c6572206973206e6f7420746f6b656e206f776e6560008201527f72206f7220617070726f76656400000000000000000000000000000000000000602082015250565b7f436f756e7465723a2064656372656d656e74206f766572666c6f770000000000600082015250565b7f4552433732313a207472616e7366657220746f206e6f6e20455243373231526560008201527f63656976657220696d706c656d656e7465720000000000000000000000000000602082015250565b7f4552433732313a207472616e736665722066726f6d20696e636f72726563742060008201527f6f776e6572000000000000000000000000000000000000000000000000000000602082015250565b7f4552433732313a20746f6b656e20616c7265616479206d696e74656400000000600082015250565b7f796f7520617265206e6f742074686520617574686f72697a6564206f6620746860008201527f6973206974656d00000000000000000000000000000000000000000000000000602082015250565b7f4552433732313a207472616e7366657220746f20746865207a65726f2061646460008201527f7265737300000000000000000000000000000000000000000000000000000000602082015250565b7f4552433732313a20617070726f766520746f2063616c6c657200000000000000600082015250565b7f4552433732313a2061646472657373207a65726f206973206e6f74206120766160008201527f6c6964206f776e65720000000000000000000000000000000000000000000000602082015250565b7f45524337323155524953746f726167653a2055524920736574206f66206e6f6e60008201527f6578697374656e7420746f6b656e000000000000000000000000000000000000602082015250565b7f7072696365206d75737420626520657175616c20746f20746865206c6973746560008201527f6420707269636500000000000000000000000000000000000000000000000000602082015250565b7f4552433732313a206d696e7420746f20746865207a65726f2061646472657373600082015250565b7f6e6f742061206c69737465642070726963650000000000000000000000000000600082015250565b7f4552433732313a20696e76616c696420746f6b656e2049440000000000000000600082015250565b7f4552433732313a20617070726f76616c20746f2063757272656e74206f776e6560008201527f7200000000000000000000000000000000000000000000000000000000000000602082015250565b7f4552433732313a20617070726f76652063616c6c6572206973206e6f7420746f60008201527f6b656e206f776e6572206f7220617070726f76656420666f7220616c6c000000602082015250565b7f70726963652073686f756c64206265206174206c656173742031205745490000600082015250565b7f5072696365206d757374206265206174206c6561737420312057454900000000600082015250565b7f76616c7565206973206e6f7420657175616c20746f20746865206c697374696e60008201527f6720707269636500000000000000000000000000000000000000000000000000602082015250565b6144de81613e16565b81146144e957600080fd5b50565b6144f581613e3a565b811461450057600080fd5b50565b61450c81613e46565b811461451757600080fd5b50565b61452381613e92565b811461452e57600080fd5b5056fea26469706673582212202758f4cf76d29312e892d18e32aa85c6ddc1d902c20483e35bb5d0e7c6db268064736f6c63430008040033",
  "devdoc": {
    "kind": "dev",
    "methods": {
      "approve(address,uint256)": {
        "details": "See {IERC721-approve}."
      },
      "balanceOf(address)": {
        "details": "See {IERC721-balanceOf}."
      },
      "getApproved(uint256)": {
        "details": "See {IERC721-getApproved}."
      },
      "isApprovedForAll(address,address)": {
        "details": "See {IERC721-isApprovedForAll}."
      },
      "name()": {
        "details": "See {IERC721Metadata-name}."
      },
      "ownerOf(uint256)": {
        "details": "See {IERC721-ownerOf}."
      },
      "safeTransferFrom(address,address,uint256)": {
        "details": "See {IERC721-safeTransferFrom}."
      },
      "safeTransferFrom(address,address,uint256,bytes)": {
        "details": "See {IERC721-safeTransferFrom}."
      },
      "setApprovalForAll(address,bool)": {
        "details": "See {IERC721-setApprovalForAll}."
      },
      "supportsInterface(bytes4)": {
        "details": "See {IERC165-supportsInterface}."
      },
      "symbol()": {
        "details": "See {IERC721Metadata-symbol}."
      },
      "tokenURI(uint256)": {
        "details": "See {IERC721Metadata-tokenURI}."
      },
      "transferFrom(address,address,uint256)": {
        "details": "See {IERC721-transferFrom}."
      }
    },
    "version": 1
  },
  "userdoc": {
    "kind": "user",
    "methods": {},
    "version": 1
  },
  "storageLayout": {
    "storage": [
      {
        "astId": 25,
        "contract": "contracts/Marketplace.sol:Marketplace",
        "label": "_name",
        "offset": 0,
        "slot": "0",
        "type": "t_string_storage"
      },
      {
        "astId": 27,
        "contract": "contracts/Marketplace.sol:Marketplace",
        "label": "_symbol",
        "offset": 0,
        "slot": "1",
        "type": "t_string_storage"
      },
      {
        "astId": 31,
        "contract": "contracts/Marketplace.sol:Marketplace",
        "label": "_owners",
        "offset": 0,
        "slot": "2",
        "type": "t_mapping(t_uint256,t_address)"
      },
      {
        "astId": 35,
        "contract": "contracts/Marketplace.sol:Marketplace",
        "label": "_balances",
        "offset": 0,
        "slot": "3",
        "type": "t_mapping(t_address,t_uint256)"
      },
      {
        "astId": 39,
        "contract": "contracts/Marketplace.sol:Marketplace",
        "label": "_tokenApprovals",
        "offset": 0,
        "slot": "4",
        "type": "t_mapping(t_uint256,t_address)"
      },
      {
        "astId": 45,
        "contract": "contracts/Marketplace.sol:Marketplace",
        "label": "_operatorApprovals",
        "offset": 0,
        "slot": "5",
        "type": "t_mapping(t_address,t_mapping(t_address,t_bool))"
      },
      {
        "astId": 1091,
        "contract": "contracts/Marketplace.sol:Marketplace",
        "label": "_tokenURIs",
        "offset": 0,
        "slot": "6",
        "type": "t_mapping(t_uint256,t_string_storage)"
      },
      {
        "astId": 2747,
        "contract": "contracts/Marketplace.sol:Marketplace",
        "label": "_tokenId",
        "offset": 0,
        "slot": "7",
        "type": "t_struct(Counter)1588_storage"
      },
      {
        "astId": 2750,
        "contract": "contracts/Marketplace.sol:Marketplace",
        "label": "_itemSold",
        "offset": 0,
        "slot": "8",
        "type": "t_struct(Counter)1588_storage"
      },
      {
        "astId": 2752,
        "contract": "contracts/Marketplace.sol:Marketplace",
        "label": "marketplaceOwner",
        "offset": 0,
        "slot": "9",
        "type": "t_address_payable"
      },
      {
        "astId": 2755,
        "contract": "contracts/Marketplace.sol:Marketplace",
        "label": "listingPrice",
        "offset": 0,
        "slot": "10",
        "type": "t_uint256"
      },
      {
        "astId": 2760,
        "contract": "contracts/Marketplace.sol:Marketplace",
        "label": "MarketItemId",
        "offset": 0,
        "slot": "11",
        "type": "t_mapping(t_uint256,t_struct(MarketItem)2807_storage)"
      }
    ],
    "types": {
      "t_address": {
        "encoding": "inplace",
        "label": "address",
        "numberOfBytes": "20"
      },
      "t_address_payable": {
        "encoding": "inplace",
        "label": "address payable",
        "numberOfBytes": "20"
      },
      "t_bool": {
        "encoding": "inplace",
        "label": "bool",
        "numberOfBytes": "1"
      },
      "t_mapping(t_address,t_bool)": {
        "encoding": "mapping",
        "key": "t_address",
        "label": "mapping(address => bool)",
        "numberOfBytes": "32",
        "value": "t_bool"
      },
      "t_mapping(t_address,t_mapping(t_address,t_bool))": {
        "encoding": "mapping",
        "key": "t_address",
        "label": "mapping(address => mapping(address => bool))",
        "numberOfBytes": "32",
        "value": "t_mapping(t_address,t_bool)"
      },
      "t_mapping(t_address,t_uint256)": {
        "encoding": "mapping",
        "key": "t_address",
        "label": "mapping(address => uint256)",
        "numberOfBytes": "32",
        "value": "t_uint256"
      },
      "t_mapping(t_uint256,t_address)": {
        "encoding": "mapping",
        "key": "t_uint256",
        "label": "mapping(uint256 => address)",
        "numberOfBytes": "32",
        "value": "t_address"
      },
      "t_mapping(t_uint256,t_string_storage)": {
        "encoding": "mapping",
        "key": "t_uint256",
        "label": "mapping(uint256 => string)",
        "numberOfBytes": "32",
        "value": "t_string_storage"
      },
      "t_mapping(t_uint256,t_struct(MarketItem)2807_storage)": {
        "encoding": "mapping",
        "key": "t_uint256",
        "label": "mapping(uint256 => struct Marketplace.MarketItem)",
        "numberOfBytes": "32",
        "value": "t_struct(MarketItem)2807_storage"
      },
      "t_string_storage": {
        "encoding": "bytes",
        "label": "string",
        "numberOfBytes": "32"
      },
      "t_struct(Counter)1588_storage": {
        "encoding": "inplace",
        "label": "struct Counters.Counter",
        "members": [
          {
            "astId": 1587,
            "contract": "contracts/Marketplace.sol:Marketplace",
            "label": "_value",
            "offset": 0,
            "slot": "0",
            "type": "t_uint256"
          }
        ],
        "numberOfBytes": "32"
      },
      "t_struct(MarketItem)2807_storage": {
        "encoding": "inplace",
        "label": "struct Marketplace.MarketItem",
        "members": [
          {
            "astId": 2798,
            "contract": "contracts/Marketplace.sol:Marketplace",
            "label": "tokenId",
            "offset": 0,
            "slot": "0",
            "type": "t_uint256"
          },
          {
            "astId": 2800,
            "contract": "contracts/Marketplace.sol:Marketplace",
            "label": "seller",
            "offset": 0,
            "slot": "1",
            "type": "t_address_payable"
          },
          {
            "astId": 2802,
            "contract": "contracts/Marketplace.sol:Marketplace",
            "label": "owner",
            "offset": 0,
            "slot": "2",
            "type": "t_address_payable"
          },
          {
            "astId": 2804,
            "contract": "contracts/Marketplace.sol:Marketplace",
            "label": "price",
            "offset": 0,
            "slot": "3",
            "type": "t_uint256"
          },
          {
            "astId": 2806,
            "contract": "contracts/Marketplace.sol:Marketplace",
            "label": "sold",
            "offset": 0,
            "slot": "4",
            "type": "t_bool"
          }
        ],
        "numberOfBytes": "160"
      },
      "t_uint256": {
        "encoding": "inplace",
        "label": "uint256",
        "numberOfBytes": "32"
      }
    }
  }
}